:100000000C9456000C9468000C9468000C946800E2
:100010000C9468000C9468000C9468000C946800C0
:100020000C9468000C9468000C9468000C946800B0
:100030000C9468000C9468000C9468000C946800A0
:100040000C9468000C9468000C9468000C94680090
:100050000C9468000C9468000C9468000C94680080
:100060000C9468000C9468000C9468000C94680070
:100070000C9468000C9468000C9468000C94680060
:100080000C9468000C9468000C9468000C94680050
:100090000C9468000C9468000C9468000C94680040
:1000A0000C9468000C9468000C94680011241FBE26
:1000B000CFEFDAE0DEBFCDBF21E0A0E0B1E001C0CC
:1000C0001D92A630B207E1F70E946A000C94A400CA
:1000D0000C94000080E887B988B916BC93E894BDF9
:1000E00094E095BD9DE297BD84B92FEF41E15AE7B9
:1000F000215040405040E1F700C0000018B88EE2A7
:1001000030E020E087BD9FEF49E658E19150404044
:100110005040E1F700C0000080FD07C0922F979586
:100120009927979598B991E029278B3311F08F5F24
:10013000E9CF4FEF5DE389E4415050408040E1F763
:0C01400000C000008EE2DECFF894FFCF7C
:00000001FF
