:100000000C9456000C9468000C9468000C946800E2
:100010000C9468000C9468000C9468000C946800C0
:100020000C9468000C9468000C9468000C946800B0
:100030000C9468000C9468000C9468000C946800A0
:100040000C9468000C9468000C9468000C94680090
:100050000C9468000C9468000C9468000C946A007E
:100060000C9468000C9468000C9468000C94680070
:100070000C9468000C9468000C9468000C94680060
:100080000C9468000C9468000C9468000C94680050
:100090000C9468000C9468000C9468000C94680040
:1000A0000C9468000C9468000C94680011241FBE26
:1000B000CFEFDAE0DEBFCDBF21E0A0E0B1E001C0CC
:1000C0001D92A630B207E1F70E94AF000C9419010F
:1000D0000C9400001F921FB61F9211242F934F9370
:1000E0005F936F937F938F939F93AF93BF93809111
:1000F000020190910301A0910401B0910501AC01AE
:10010000BD014F5F5F4F6F4F7F4F40930201509390
:10011000030160930401709305018E3C9744A1058F
:10012000B10581F4809101018F5F8093010181E02D
:1001300080930001109202011092030110920401B9
:1001400010920501BF91AF919F918F917F916F9117
:100150005F914F912F911F901FBE1F90189514BC57
:1001600085E085BD16BC80916E00816080936E0035
:1001700088E084B98CE08AB9789488E02FEF39E67A
:1001800048E1215030404040E1F700C0000090912C
:100190000001992399F3909101019923E9F130E04D
:1001A00020E095B1982795B99BB198279BB95FEF4F
:1001B00093E244EF515090404040E1F700C000000E
:1001C00095B1982795B99BB198279BB95FEF99E6B0
:1001D00048E1515090404040E1F700C0000095B127
:1001E000982795B99BB198279BB95FEF93E244EFAD
:1001F000515090404040E1F700C0000095B1982771
:1002000095B99BB198279BB92F5F3F4F9091010102
:100210009217130609F02CF610920001909101013B
:10022000943028F49091010190930101A7CF90E0C0
:06023000FBCFF894FFCFA4
:00000001FF
