:100000000C9456000C9468000C9468000C946800E2
:100010000C9468000C9468000C9468000C946800C0
:100020000C9468000C9468000C9468000C946800B0
:100030000C9468000C9468000C9468000C946800A0
:100040000C9468000C9468000C9468000C94680090
:100050000C9468000C9468000C9468000C94680080
:100060000C9468000C9468000C9468000C94680070
:100070000C9468000C9468000C9468000C94680060
:100080000C9468000C9468000C9468000C94680050
:100090000C9468000C9468000C9468000C94680040
:1000A0000C9468000C9468000C94680011241FBE26
:1000B000CFEFDAE0DEBFCDBF21E0A0E0B1E001C0CC
:1000C0001D92A630B207E1F70E946A000C94D80096
:1000D0000C94000080E887B988B916BC93E894BDF9
:1000E00094E095BD9DE297BD84B92FEF31E18AE799
:1000F000215030408040E1F700C000008BE387BD15
:100100009FEF21E13AE7915020403040E1F700C0F5
:10011000000017BC8FEF91E12AE78150904020400A
:10012000E1F700C000008FE187BD3FEF81E19AE772
:10013000315080409040E1F700C0000017BC2FEF25
:1001400031E18AE7215030408040E1F700C00000F3
:100150008EE241E087BD9FEF20E732E091502040E2
:100160003040E1F700C0000090E8899F9001112421
:1001700028B98B3381F0942F8F3159F42FEF3DE361
:1001800099E4215030409040E1F700C0000091E038
:1001900041E0890FDFCF2FEF3DE399E4215030405C
:1001A0009040E1F700C000009FEF4FEF890FD2CFE2
:0401B000F894FFCFF1
:00000001FF
