:100000000C9456000C9468000C9468000C946800E2
:100010000C9468000C9468000C9468000C946800C0
:100020000C9468000C9468000C9468000C946800B0
:100030000C9468000C9468000C9468000C946800A0
:100040000C9468000C9468000C9468000C94680090
:100050000C9468000C9468000C9468000C946A007E
:100060000C9468000C9468000C9468000C94680070
:100070000C9468000C9468000C9468000C94680060
:100080000C9468000C9468000C9468000C94680050
:100090000C9468000C9468000C9468000C94680040
:1000A0000C9468000C9468000C94680011241FBE26
:1000B000CFEFDAE0DEBFCDBF21E0A0E0B1E001C0CC
:1000C0001D92A630B207E1F70E94AF000C942B01FD
:1000D0000C9400001F921FB61F9211242F934F9370
:1000E0005F936F937F938F939F93AF93BF93809111
:1000F000020190910301A0910401B0910501AC01AE
:10010000BD014F5F5F4F6F4F7F4F40930201509390
:10011000030160930401709305018E3C9744A1058F
:10012000B10581F4809101018F5F8093010181E02D
:1001300080930001109202011092030110920401B9
:1001400010920501BF91AF919F918F917F916F9117
:100150005F914F912F911F901FBE1F90189514BC57
:1001600085E085BD16BC80916E00816080936E0035
:1001700088E084B98CE08AB980E887B988B9789436
:1001800088E098B1905898B92FEF30E742E02150BD
:1001900030404040E1F700C0000098B1907898B935
:1001A0005FEF90E722E0515090402040E1F700C01F
:1001B000000090910001992321F39091010199236E
:1001C000E9F130E020E095B1982795B99BB19827E7
:1001D0009BB94FEF53E294EF415050409040E1F70C
:1001E00000C0000095B1982795B99BB198279BB99D
:1001F0004FEF59E698E1415050409040E1F700C080
:10020000000095B1982795B99BB198279BB94FEFFE
:1002100053E294EF415050409040E1F700C000009D
:1002200095B1982795B99BB198279BB92F5F3F4F00
:10023000909101019217130609F02CF6109200011B
:1002400090910101943028F4909101019093010163
:0A02500098CF90E0FBCFF894FFCFA9
:00000001FF
